S00B00005131332E7372656364
S11300000C9434000C9449000C9449000C9449005D
S11300100C9449000C9449000C9449000C94490038
S11300200C9449000C9449000C9449000C94490028
S11300300C9449000C9449000C9449000C94490018
S11300400C9449000C9449000C9449000C94490008
S11300500C9449000C9449000C9449000C944900F8
S11300600C9449000C94490011241FBECFEFD8E032
S1130070DEBFCDBF11E0A0E0B1E0E0E2F3E002C0FA
S113008005900D92A036B107D9F70E94A7000C94F1
S11300908E010C9400001092C50087E68093C40082
S11300A088E18093C10086E08093C2000895909116
S11300B0C00095FFFCCF8093C6000895CF93DF93D3
S11300C0EC0103C021960E94570088818111FACF68
S11300D0DF91CF910895AC0120E030E09091C00011
S11300E09923E4F79091C6009A3011F09D3029F4D9
S11300F0FA01E20FF31F10820895FA01E20FF31FD1
S113010090832F5F3F4FEACF8AB180648AB984B568
S1130110836084BD84B5806884BD85B5836085BDF6
S11301200895992314F480E090E08536910514F045
S113013084E690E04FEF489F9001499F300D1124D1
S1130140C90164E670E00E94020167BD0895CF937F
S1130150DF93CDB7DEB769970FB6F894DEBF0FBE55
S1130160CDBF0E944B000E94840080E091E00E9479
S11301705E00CE0101960E946B006FE071E0CE013B
S113018001960E944801892B49F484E690E00E947C
S1130190910082E191E00E945E00EBCF62E271E0A7
S11301A0CE0101960E944801892B49F480E090E039
S11301B00E94910086E291E00E945E00DACFCE01B7
S11301C001960E942A018C0185369105B0F40E94A3
S11301D0910087E391E00E945E004AE0BE016B5EFD
S11301E07F4FC8010E945101CE0145960E945E00D6
S11301F08AE491E00E945E00BCCF8EE491E00E940C
S11302005E00B7CF97FB072E16F4009407D077FD56
S113021009D00E94160107FC05D03EF49095819503
S11302209F4F0895709561957F4F0895AA1BBB1B3E
S113023051E107C0AA1FBB1FA617B70710F0A61BE2
S1130240B70B881F991F5A95A9F780959095BC0103
S1130250CD010895FC0188279927E8942191203243
S1130260E9F3293010F02E30C8F32B3241F02D324F
S113027039F4689404C00E945C01820F911D21919D
S113028020532A30C0F31EF4909581959F4F089512
S1130290FB01DC018D91019080190110D9F3990BB8
S11302A00895BB274A3031F4992322F4BDE2909596
S11302B081959F4F0C9465017AE0979F902D879FBD
S11302C0802D910D11240895BB27FB015527AA27E2
S11302D0880F991FAA1FA41710F0A41B83955051CF
S11302E0B9F7A05DAA3308F0A95DA193009779F747
S11302F0B111B1931192CB010C947E01DC01FC018C
S1130300672F71917723E1F7329704C07C916D9345
S113031070836291AE17BF07C8F30895F894FFCFB6
S113032053797374656D2052656164790D0A004FC9
S11303304E004C4544206973206E6F77204F4E0D5C
S11303400A004F4646004C4544206973206E6F777F
S1130350204F46460D0A004272696768746E6573E1
S1130360732073657420746F2000250D0A00496E94
S113037076616C696420636F6D6D616E640D0A0053
S9030000FC
