:100000000C9434000C943E000C943E000C943E0082
:100010000C943E000C943E000C943E000C943E0068
:100020000C943E000C943E000C943E000C943E0058
:100030000C943E000C943E000C943E000C943E0048
:100040000C943E000C943E000C943E000C943E0038
:100050000C943E000C943E000C943E000C943E0028
:100060000C943E000C943E0011241FBECFEFD8E04C
:10007000DEBFCDBF0E9440000C9479000C940000BC
:100080008AB180668AB98AB18B7F8AB98BB1846064
:100090008BB98BB180628BB98BB18F7B8BB980E0D0
:1000A0004A99FECF2FEF30E792E021503040904048
:1000B000E1F700C000004A99F3CF91E0892739F4B5
:1000C0009BB190629BB99BB19F7B9BB906C09BB1D2
:1000D00090649BB99BB19F7D9BB94A9BFECF2FEF4C
:1000E00030E792E0215030409040E1F700C000003E
:0600F000D7CFF894FFCF0A
:00000001FF
