:100000000C9434000C943E000C943E000C943E0082
:100010000C943E000C943E000C943E000C943E0068
:100020000C943E000C943E000C943E000C943E0058
:100030000C943E000C943E000C943E000C943E0048
:100040000C943E000C943E000C943E000C943E0038
:100050000C943E000C943E000C943E000C943E0028
:100060000C943E000C943E0011241FBECFEFD8E04C
:10007000DEBFCDBF0E9443000C946F000C940000C3
:100080008F7085B908958FE084B98AB18B7F8AB962
:100090008BB184608BB980E00E944000C0E04A9937
:1000A000FECF2FEF80E792E0215080409040E1F7B3
:1000B00000C000004A99F3CFCF5FC03108F0C0E024
:1000C0008C2F0E9440004A9BFECF2FEF80E792E0EA
:1000D000215080409040E1F700C00000E0CFF8944C
:0200E000FFCF50
:00000001FF
