S00A000051382E7372656391
S11300000C9434000C943E000C943E000C943E007E
S11300100C943E000C943E000C943E000C943E0064
S11300200C943E000C943E000C943E000C943E0054
S11300300C943E000C943E000C943E000C943E0044
S11300400C943E000C943E000C943E000C943E0034
S11300500C943E000C943E000C943E000C943E0024
S11300600C943E000C943E0011241FBECFEFD8E048
S1130070DEBFCDBF0E9453000C9489000C94000095
S1130080813049F028F0823049F0833051F00895EE
S113009080E487BD089580E887BD089580EC87BD1E
S11300A0089517BC08958AB180648AB98AB18B7F98
S11300B08AB98BB184608BB984B5836084BD84B5FF
S11300C0806884BD85B5836085BD80E00E94400062
S11300D0C0E04A99FECF2FEF80E792E021508040A4
S11300E09040E1F700C000004A99F3CFCF5FC430DD
S11300F008F0C0E08C2F0E9440004A9BFECF2FEFF7
S113010080E792E0215080409040E1F700C0000079
S1090110E0CFF894FFCFDC
S9030000FC
