:100000000C9434000C9446000C9446000C9446006A
:100010000C9446000C9446000C9446000C946D0021
:100020000C9446000C9446000C9446000C94480036
:100030000C9446000C9446000C9446000C94460028
:100040000C9446000C9446000C9446000C94460018
:100050000C9446000C9446000C9446000C94460008
:100060000C9446000C94460011241FBECFEFD8E03C
:10007000DEBFCDBF21E0A0E0B1E001C01D92A43001
:10008000B207E1F70E9492000C94BC000C940000AF
:100090001F920F920FB60F9211248F939F9380910E
:1000A0000201909103010196909303018093020154
:1000B0008091020190910301029740F095B182E096
:1000C000892785B910920301109202019F918F91A7
:1000D0000F900FBE0F901F9018951F920F920FB6A2
:1000E0000F9211248F939F938091000190910101B1
:1000F00001969093010180930001809100019091FD
:100100000101C29740F095B184E0892785B910922A
:100110000101109200019F918F910F900FBE0F90DF
:100120001F90189584B1866084B9E1E8F0E0808181
:100130008860808388E09DE39093890080938800A5
:10014000AFE6B0E08C9182608C9380818560808383
:10015000E0EBF0E08081826080838BE98093B300E4
:10016000E0E7F0E0808182608083E1EBF0E0808175
:0C017000876080837894FFCFF894FFCF65
:00000001FF
