:100000000C9434000C943E000C943E000C943E0082
:100010000C943E000C943E000C943E000C943E0068
:100020000C943E000C943E000C943E000C943E0058
:100030000C943E000C943E000C943E000C943E0048
:100040000C943E000C943E000C943E000C943E0038
:100050000C943E000C943E000C943E000C943E0028
:100060000C943E000C943E0011241FBECFEFD8E04C
:10007000DEBFCDBF0E9475000C94A3000C9400005D
:1000800080E480937C0086E880937A000895EAE714
:10009000F0E080818064808380917A0086FDFCCFCF
:1000A000809178009091790008950E94470096957C
:1000B000879508958931910518F480E487BD0895E6
:1000C000839718F480E887BD089588EC87BD08956C
:1000D0008AB180648AB984B5836084BD84B5806840
:1000E00084BD85B5836085BD08958AB18B7F8AB94B
:1000F0008BB184608BB90E9440000E946800C0E010
:100100004A9918C02FEF80E792E02150804090403C
:10011000E1F700C000004A990DC081E0C8274A9B62
:10012000FECF2FEF80E792E0215080409040E1F732
:1001300000C00000CC2329F00E9455000E945A0004
:0A014000DFCF17BCDDCFF894FFCF2E
:00000001FF
