:100000000C9434000C943E000C943E000C943E0082
:100010000C943E000C943E000C943E000C943E0068
:100020000C943E000C943E000C943E000C943E0058
:100030000C943E000C943E000C943E000C943E0048
:100040000C943E000C943E000C943E000C943E0038
:100050000C943E000C943E000C943E000C943E0028
:100060000C943E000C943E0011241FBECFEFD8E04C
:10007000DEBFCDBF0E946F000C948D000C94000079
:1000800080E480937C0086E880937A000895EAE714
:10009000F0E080818064808380917A0086FDFCCFCF
:1000A000809178009091790008958AB180648AB92E
:1000B00084B5836084BD84B5806884BD85B5836064
:1000C00085BD08952FEFAC01249FC001259F900DA1
:1000D00011246FEF73E00E947900862F08950E942B
:1000E00040000E9455000E9447000E94620087BDA8
:1000F000FACFAA1BBB1B51E107C0AA1FBB1FA61743
:10010000B70710F0A61BB70B881F991F5A95A9F7C0
:0E01100080959095BC01CD010895F894FFCF25
:00000001FF
