S00A000051352E7372656394
S11300000C9434000C943E000C943E000C943E007E
S11300100C943E000C943E000C943E000C943E0064
S11300200C943E000C943E000C943E000C943E0054
S11300300C943E000C943E000C943E000C943E0044
S11300400C943E000C943E000C943E000C943E0034
S11300500C943E000C943E000C943E000C943E0024
S11300600C943E000C943E0011241FBECFEFD8E048
S1130070DEBFCDBF0E9456000C947A000C940000A1
S1130080E1E8F0E080818860808388E09DE39093DC
S1130090890080938800808185608083B19BFECF36
S11300A086B3826086BB10928100089587E084B98C
S11300B081E085B9C0E0D0E003C00E9440002196F1
S11300C0CA30D105D4F382E085B9C0E0D0E003C0E2
S11300D00E9440002196C330D105D4F384E085B951
S11300E0C0E0D0E003C00E9440002196CA30D10590
S10B00F0D4F3DECFF894FFCF36
S9030000FC
